{
  "_format": "hh-sol-artifact-1",
  "contractName": "DynamicNFT",
  "sourceName": "contracts/DynamicNFT.sol",
  "abi": [
    {
      "inputs": [
        {
          "internalType": "string",
          "name": "name_",
          "type": "string"
        },
        {
          "internalType": "string",
          "name": "symbol_",
          "type": "string"
        }
      ],
      "stateMutability": "nonpayable",
      "type": "constructor"
    },
    {
      "anonymous": false,
      "inputs": [
        {
          "indexed": true,
          "internalType": "address",
          "name": "owner",
          "type": "address"
        },
        {
          "indexed": true,
          "internalType": "address",
          "name": "approved",
          "type": "address"
        },
        {
          "indexed": true,
          "internalType": "uint256",
          "name": "tokenId",
          "type": "uint256"
        }
      ],
      "name": "Approval",
      "type": "event"
    },
    {
      "anonymous": false,
      "inputs": [
        {
          "indexed": true,
          "internalType": "address",
          "name": "owner",
          "type": "address"
        },
        {
          "indexed": true,
          "internalType": "address",
          "name": "operator",
          "type": "address"
        },
        {
          "indexed": false,
          "internalType": "bool",
          "name": "approved",
          "type": "bool"
        }
      ],
      "name": "ApprovalForAll",
      "type": "event"
    },
    {
      "anonymous": false,
      "inputs": [
        {
          "indexed": true,
          "internalType": "address",
          "name": "previousOwner",
          "type": "address"
        },
        {
          "indexed": true,
          "internalType": "address",
          "name": "newOwner",
          "type": "address"
        }
      ],
      "name": "OwnershipTransferred",
      "type": "event"
    },
    {
      "anonymous": false,
      "inputs": [
        {
          "indexed": false,
          "internalType": "address[]",
          "name": "winners",
          "type": "address[]"
        }
      ],
      "name": "PickWinners",
      "type": "event"
    },
    {
      "anonymous": false,
      "inputs": [
        {
          "indexed": true,
          "internalType": "address",
          "name": "from",
          "type": "address"
        },
        {
          "indexed": true,
          "internalType": "address",
          "name": "to",
          "type": "address"
        },
        {
          "indexed": true,
          "internalType": "uint256",
          "name": "tokenId",
          "type": "uint256"
        }
      ],
      "name": "Transfer",
      "type": "event"
    },
    {
      "inputs": [
        {
          "internalType": "address",
          "name": "to",
          "type": "address"
        },
        {
          "internalType": "uint256",
          "name": "tokenId",
          "type": "uint256"
        }
      ],
      "name": "approve",
      "outputs": [],
      "stateMutability": "nonpayable",
      "type": "function"
    },
    {
      "inputs": [
        {
          "internalType": "address",
          "name": "owner",
          "type": "address"
        }
      ],
      "name": "balanceOf",
      "outputs": [
        {
          "internalType": "uint256",
          "name": "",
          "type": "uint256"
        }
      ],
      "stateMutability": "view",
      "type": "function"
    },
    {
      "inputs": [],
      "name": "bid",
      "outputs": [],
      "stateMutability": "nonpayable",
      "type": "function"
    },
    {
      "inputs": [
        {
          "internalType": "uint256",
          "name": "",
          "type": "uint256"
        }
      ],
      "name": "biddingList",
      "outputs": [
        {
          "internalType": "address",
          "name": "",
          "type": "address"
        }
      ],
      "stateMutability": "view",
      "type": "function"
    },
    {
      "inputs": [
        {
          "internalType": "uint256",
          "name": "tokenId",
          "type": "uint256"
        }
      ],
      "name": "burn",
      "outputs": [],
      "stateMutability": "nonpayable",
      "type": "function"
    },
    {
      "inputs": [],
      "name": "cancelBid",
      "outputs": [],
      "stateMutability": "nonpayable",
      "type": "function"
    },
    {
      "inputs": [],
      "name": "clearBidList",
      "outputs": [],
      "stateMutability": "nonpayable",
      "type": "function"
    },
    {
      "inputs": [],
      "name": "clearWinnerList",
      "outputs": [],
      "stateMutability": "nonpayable",
      "type": "function"
    },
    {
      "inputs": [
        {
          "internalType": "uint256",
          "name": "tokenId",
          "type": "uint256"
        }
      ],
      "name": "getApproved",
      "outputs": [
        {
          "internalType": "address",
          "name": "",
          "type": "address"
        }
      ],
      "stateMutability": "view",
      "type": "function"
    },
    {
      "inputs": [],
      "name": "getBiddingList",
      "outputs": [
        {
          "internalType": "address[]",
          "name": "",
          "type": "address[]"
        }
      ],
      "stateMutability": "view",
      "type": "function"
    },
    {
      "inputs": [],
      "name": "getRoundEndTime",
      "outputs": [
        {
          "internalType": "uint256",
          "name": "",
          "type": "uint256"
        }
      ],
      "stateMutability": "view",
      "type": "function"
    },
    {
      "inputs": [],
      "name": "getState",
      "outputs": [
        {
          "internalType": "enum DynamicNFT.Status",
          "name": "",
          "type": "uint8"
        }
      ],
      "stateMutability": "view",
      "type": "function"
    },
    {
      "inputs": [],
      "name": "getTimeParams",
      "outputs": [
        {
          "internalType": "uint256",
          "name": "roundBeginTime",
          "type": "uint256"
        },
        {
          "internalType": "uint256",
          "name": "roundInterval",
          "type": "uint256"
        },
        {
          "internalType": "uint256",
          "name": "biddingTime",
          "type": "uint256"
        }
      ],
      "stateMutability": "view",
      "type": "function"
    },
    {
      "inputs": [],
      "name": "getTokenIdList",
      "outputs": [
        {
          "internalType": "uint256[]",
          "name": "",
          "type": "uint256[]"
        }
      ],
      "stateMutability": "view",
      "type": "function"
    },
    {
      "inputs": [],
      "name": "getWinnerList",
      "outputs": [
        {
          "internalType": "address[]",
          "name": "",
          "type": "address[]"
        }
      ],
      "stateMutability": "view",
      "type": "function"
    },
    {
      "inputs": [
        {
          "internalType": "address",
          "name": "owner",
          "type": "address"
        },
        {
          "internalType": "address",
          "name": "operator",
          "type": "address"
        }
      ],
      "name": "isApprovedForAll",
      "outputs": [
        {
          "internalType": "bool",
          "name": "",
          "type": "bool"
        }
      ],
      "stateMutability": "view",
      "type": "function"
    },
    {
      "inputs": [
        {
          "internalType": "address",
          "name": "input",
          "type": "address"
        }
      ],
      "name": "isWinner",
      "outputs": [
        {
          "internalType": "bool",
          "name": "",
          "type": "bool"
        }
      ],
      "stateMutability": "view",
      "type": "function"
    },
    {
      "inputs": [
        {
          "internalType": "address",
          "name": "to",
          "type": "address"
        },
        {
          "internalType": "uint256",
          "name": "tokenId",
          "type": "uint256"
        }
      ],
      "name": "mint",
      "outputs": [],
      "stateMutability": "nonpayable",
      "type": "function"
    },
    {
      "inputs": [],
      "name": "name",
      "outputs": [
        {
          "internalType": "string",
          "name": "",
          "type": "string"
        }
      ],
      "stateMutability": "view",
      "type": "function"
    },
    {
      "inputs": [],
      "name": "owner",
      "outputs": [
        {
          "internalType": "address",
          "name": "",
          "type": "address"
        }
      ],
      "stateMutability": "view",
      "type": "function"
    },
    {
      "inputs": [
        {
          "internalType": "uint256",
          "name": "tokenId",
          "type": "uint256"
        }
      ],
      "name": "ownerOf",
      "outputs": [
        {
          "internalType": "address",
          "name": "",
          "type": "address"
        }
      ],
      "stateMutability": "view",
      "type": "function"
    },
    {
      "inputs": [
        {
          "internalType": "string",
          "name": "input",
          "type": "string"
        }
      ],
      "name": "pickWinners",
      "outputs": [],
      "stateMutability": "nonpayable",
      "type": "function"
    },
    {
      "inputs": [],
      "name": "renounceOwnership",
      "outputs": [],
      "stateMutability": "nonpayable",
      "type": "function"
    },
    {
      "inputs": [
        {
          "internalType": "address",
          "name": "from",
          "type": "address"
        },
        {
          "internalType": "address",
          "name": "to",
          "type": "address"
        },
        {
          "internalType": "uint256",
          "name": "tokenId",
          "type": "uint256"
        }
      ],
      "name": "safeTransferFrom",
      "outputs": [],
      "stateMutability": "nonpayable",
      "type": "function"
    },
    {
      "inputs": [
        {
          "internalType": "address",
          "name": "from",
          "type": "address"
        },
        {
          "internalType": "address",
          "name": "to",
          "type": "address"
        },
        {
          "internalType": "uint256",
          "name": "tokenId",
          "type": "uint256"
        },
        {
          "internalType": "bytes",
          "name": "_data",
          "type": "bytes"
        }
      ],
      "name": "safeTransferFrom",
      "outputs": [],
      "stateMutability": "nonpayable",
      "type": "function"
    },
    {
      "inputs": [
        {
          "internalType": "address",
          "name": "operator",
          "type": "address"
        },
        {
          "internalType": "bool",
          "name": "approved",
          "type": "bool"
        }
      ],
      "name": "setApprovalForAll",
      "outputs": [],
      "stateMutability": "nonpayable",
      "type": "function"
    },
    {
      "inputs": [
        {
          "internalType": "uint256",
          "name": "input",
          "type": "uint256"
        }
      ],
      "name": "setBiddingTime",
      "outputs": [],
      "stateMutability": "nonpayable",
      "type": "function"
    },
    {
      "inputs": [
        {
          "internalType": "uint256",
          "name": "input",
          "type": "uint256"
        }
      ],
      "name": "setRoundBeginTime",
      "outputs": [],
      "stateMutability": "nonpayable",
      "type": "function"
    },
    {
      "inputs": [
        {
          "internalType": "uint256",
          "name": "input",
          "type": "uint256"
        }
      ],
      "name": "setRoundInterval",
      "outputs": [],
      "stateMutability": "nonpayable",
      "type": "function"
    },
    {
      "inputs": [
        {
          "internalType": "bytes4",
          "name": "interfaceId",
          "type": "bytes4"
        }
      ],
      "name": "supportsInterface",
      "outputs": [
        {
          "internalType": "bool",
          "name": "",
          "type": "bool"
        }
      ],
      "stateMutability": "view",
      "type": "function"
    },
    {
      "inputs": [],
      "name": "symbol",
      "outputs": [
        {
          "internalType": "string",
          "name": "",
          "type": "string"
        }
      ],
      "stateMutability": "view",
      "type": "function"
    },
    {
      "inputs": [
        {
          "internalType": "uint256",
          "name": "",
          "type": "uint256"
        }
      ],
      "name": "tokenIDList",
      "outputs": [
        {
          "internalType": "uint256",
          "name": "",
          "type": "uint256"
        }
      ],
      "stateMutability": "view",
      "type": "function"
    },
    {
      "inputs": [
        {
          "internalType": "address",
          "name": "owner",
          "type": "address"
        }
      ],
      "name": "tokenOfOwner",
      "outputs": [
        {
          "internalType": "uint256[]",
          "name": "",
          "type": "uint256[]"
        }
      ],
      "stateMutability": "view",
      "type": "function"
    },
    {
      "inputs": [
        {
          "internalType": "uint256",
          "name": "tokenId",
          "type": "uint256"
        }
      ],
      "name": "tokenURI",
      "outputs": [
        {
          "internalType": "string",
          "name": "",
          "type": "string"
        }
      ],
      "stateMutability": "view",
      "type": "function"
    },
    {
      "inputs": [
        {
          "internalType": "address",
          "name": "from",
          "type": "address"
        },
        {
          "internalType": "address",
          "name": "to",
          "type": "address"
        },
        {
          "internalType": "uint256",
          "name": "tokenId",
          "type": "uint256"
        }
      ],
      "name": "transferFrom",
      "outputs": [],
      "stateMutability": "nonpayable",
      "type": "function"
    },
    {
      "inputs": [
        {
          "internalType": "address",
          "name": "newOwner",
          "type": "address"
        }
      ],
      "name": "transferOwnership",
      "outputs": [],
      "stateMutability": "nonpayable",
      "type": "function"
    },
    {
      "inputs": [
        {
          "internalType": "uint256",
          "name": "",
          "type": "uint256"
        }
      ],
      "name": "winnerList",
      "outputs": [
        {
          "internalType": "address",
          "name": "",
          "type": "address"
        }
      ],
      "stateMutability": "view",
      "type": "function"
    }
  ],
  "bytecode": "0x60806040526000600655600060075560006008556000600960006101000a81548160ff0219169083151502179055503480156200003b57600080fd5b5060405162005364380380620053648339818101604052810190620000619190620003d4565b6200008162000075620000bb60201b60201c565b620000c360201b60201c565b81600190805190602001906200009992919062000187565b508060029080519060200190620000b292919062000187565b505050620004be565b600033905090565b60008060009054906101000a900473ffffffffffffffffffffffffffffffffffffffff169050816000806101000a81548173ffffffffffffffffffffffffffffffffffffffff021916908373ffffffffffffffffffffffffffffffffffffffff1602179055508173ffffffffffffffffffffffffffffffffffffffff168173ffffffffffffffffffffffffffffffffffffffff167f8be0079c531659141344cd1fd0a4f28419497f9722a3daafe3b4186f6b6457e060405160405180910390a35050565b828054620001959062000488565b90600052602060002090601f016020900481019282620001b9576000855562000205565b82601f10620001d457805160ff191683800117855562000205565b8280016001018555821562000205579182015b8281111562000204578251825591602001919060010190620001e7565b5b50905062000214919062000218565b5090565b5b808211156200023357600081600090555060010162000219565b5090565b6000604051905090565b600080fd5b600080fd5b600080fd5b600080fd5b6000601f19601f8301169050919050565b7f4e487b7100000000000000000000000000000000000000000000000000000000600052604160045260246000fd5b620002a08262000255565b810181811067ffffffffffffffff82111715620002c257620002c162000266565b5b80604052505050565b6000620002d762000237565b9050620002e5828262000295565b919050565b600067ffffffffffffffff82111562000308576200030762000266565b5b620003138262000255565b9050602081019050919050565b60005b838110156200034057808201518184015260208101905062000323565b8381111562000350576000848401525b50505050565b60006200036d6200036784620002ea565b620002cb565b9050828152602081018484840111156200038c576200038b62000250565b5b6200039984828562000320565b509392505050565b600082601f830112620003b957620003b86200024b565b5b8151620003cb84826020860162000356565b91505092915050565b60008060408385031215620003ee57620003ed62000241565b5b600083015167ffffffffffffffff8111156200040f576200040e62000246565b5b6200041d85828601620003a1565b925050602083015167ffffffffffffffff81111562000441576200044062000246565b5b6200044f85828601620003a1565b9150509250929050565b7f4e487b7100000000000000000000000000000000000000000000000000000000600052602260045260246000fd5b60006002820490506001821680620004a157607f821691505b60208210811415620004b857620004b762000459565b5b50919050565b614e9680620004ce6000396000f3fe608060405234801561001057600080fd5b50600436106102275760003560e01c806370a0823111610130578063b88d4fde116100b8578063e57d55eb1161007c578063e57d55eb1461062a578063e7315a021461065a578063e985e9c514610664578063f2fde38b14610694578063fb58543e146106b057610227565b8063b88d4fde14610588578063be0aa10a146105a4578063c87b56dd146105c0578063cc6da0da146105f0578063ddb88b681461060c57610227565b80638da5cb5b116100ff5780638da5cb5b146104f65780639435c8871461051457806395d89b411461051e5780639d9ca28d1461053c578063a22cb4651461056c57610227565b806370a082311461046e578063715018a61461049e578063761ce95d146104a85780637fc5af95146104d857610227565b806323b872dd116101b35780634110cb81116101825780634110cb81146103ba57806342842e0e146103d657806342966c68146103f25780635578027e1461040e5780636352211e1461043e57610227565b806323b872dd14610334578063294cdf0d1461035057806338a4063d1461038057806340c10f191461039e57610227565b8063081812fc116101fa578063081812fc146102a0578063095ea7b3146102d05780630eb70715146102ec5780631865c57d1461030c5780631998aeef1461032a57610227565b806301ffc9a71461022c57806305e9560b1461025c57806306fdde031461026657806307ebef7014610284575b600080fd5b610246600480360381019061024191906135e5565b6106ce565b604051610253919061362d565b60405180910390f35b6102646107b0565b005b61026e6108f6565b60405161027b91906136e1565b60405180910390f35b61029e60048036038101906102999190613768565b610988565b005b6102ba60048036038101906102b591906137eb565b610f7a565b6040516102c79190613859565b60405180910390f35b6102ea60048036038101906102e591906138a0565b610fff565b005b6102f4611117565b604051610303939291906138ef565b60405180910390f35b610314611130565b604051610321919061399d565b60405180910390f35b6103326111db565b005b61034e600480360381019061034991906139b8565b6114d4565b005b61036a60048036038101906103659190613a0b565b611534565b6040516103779190613af6565b60405180910390f35b610388611775565b6040516103959190613b18565b60405180910390f35b6103b860048036038101906103b391906138a0565b61182e565b005b6103d460048036038101906103cf91906137eb565b6118fe565b005b6103f060048036038101906103eb91906139b8565b6119c8565b005b61040c600480360381019061040791906137eb565b6119e8565b005b610428600480360381019061042391906137eb565b611b68565b6040516104359190613859565b60405180910390f35b610458600480360381019061045391906137eb565b611ba7565b6040516104659190613859565b60405180910390f35b61048860048036038101906104839190613a0b565b611d85565b6040516104959190613b18565b60405180910390f35b6104a6611e8d565b005b6104c260048036038101906104bd91906137eb565b611f15565b6040516104cf9190613859565b60405180910390f35b6104e0611f54565b6040516104ed9190613bf1565b60405180910390f35b6104fe611fe2565b60405161050b9190613859565b60405180910390f35b61051c61200b565b005b61052661201d565b60405161053391906136e1565b60405180910390f35b61055660048036038101906105519190613a0b565b6120af565b604051610563919061362d565b60405180910390f35b61058660048036038101906105819190613c3f565b612105565b005b6105a2600480360381019061059d9190613daf565b61211b565b005b6105be60048036038101906105b991906137eb565b61217d565b005b6105da60048036038101906105d591906137eb565b612203565b6040516105e791906136e1565b60405180910390f35b61060a600480360381019061060591906137eb565b6122aa565b005b610614612330565b6040516106219190613af6565b60405180910390f35b610644600480360381019061063f91906137eb565b612388565b6040516106519190613b18565b60405180910390f35b6106626123ac565b005b61067e60048036038101906106799190613e32565b612432565b60405161068b919061362d565b60405180910390f35b6106ae60048036038101906106a99190613a0b565b6124c6565b005b6106b86125be565b6040516106c59190613bf1565b60405180910390f35b60007f80ac58cd000000000000000000000000000000000000000000000000000000007bffffffffffffffffffffffffffffffffffffffffffffffffffffffff1916827bffffffffffffffffffffffffffffffffffffffffffffffffffffffff1916148061079957507f5b5e139f000000000000000000000000000000000000000000000000000000007bffffffffffffffffffffffffffffffffffffffffffffffffffffffff1916827bffffffffffffffffffffffffffffffffffffffffffffffffffffffff1916145b806107a957506107a88261264c565b5b9050919050565b6107b86126b6565b73ffffffffffffffffffffffffffffffffffffffff166107d6611fe2565b73ffffffffffffffffffffffffffffffffffffffff161461082c576040517f08c379a000000000000000000000000000000000000000000000000000000000815260040161082390613ebe565b60405180910390fd5b60005b600f805490508110156108e5576000600e6000600f848154811061085657610855613ede565b5b9060005260206000200160009054906101000a900473ffffffffffffffffffffffffffffffffffffffff1673ffffffffffffffffffffffffffffffffffffffff1673ffffffffffffffffffffffffffffffffffffffff16815260200190815260200160002060006101000a81548160ff02191690831515021790555080806108dd90613f3c565b91505061082f565b50600f60006108f4919061353b565b565b60606001805461090590613fb4565b80601f016020809104026020016040519081016040528092919081815260200182805461093190613fb4565b801561097e5780601f106109535761010080835404028352916020019161097e565b820191906000526020600020905b81548152906001019060200180831161096157829003601f168201915b5050505050905090565b6109906126b6565b73ffffffffffffffffffffffffffffffffffffffff166109ae611fe2565b73ffffffffffffffffffffffffffffffffffffffff1614610a04576040517f08c379a00000000000000000000000000000000000000000000000000000000081526004016109fb90613ebe565b60405180910390fd5b6000610a0e611130565b905060006004811115610a2457610a23613926565b5b816004811115610a3757610a36613926565b5b1415610a5d576001600960006101000a81548160ff021916908315150217905550610ac5565b60026004811115610a7157610a70613926565b5b816004811115610a8457610a83613926565b5b14610ac4576040517f08c379a0000000000000000000000000000000000000000000000000000000008152600401610abb90614058565b60405180910390fd5b5b6000600c8054905090506000848442604051602001610ae6939291906140c9565b6040516020818303038152906040528051906020012060001c905060008267ffffffffffffffff811115610b1d57610b1c613c84565b5b604051908082528060200260200182016040528015610b4b5781602001602082028036833780820191505090505b50905060005b83811015610f1c576000600a805490501415610c055760036000600c8381548110610b7f57610b7e613ede565b5b90600052602060002001548152602001908152602001600020610ba0611fe2565b9080600181540180825580915050600190039060005260206000200160009091909190916101000a81548173ffffffffffffffffffffffffffffffffffffffff021916908373ffffffffffffffffffffffffffffffffffffffff160217905550610f09565b6000600a8054905084610c189190614122565b9050600a8054905084610c2b9190614153565b935060036000600c8481548110610c4557610c44613ede565b5b90600052602060002001548152602001908152602001600020600a8281548110610c7257610c71613ede565b5b9060005260206000200160009054906101000a900473ffffffffffffffffffffffffffffffffffffffff169080600181540180825580915050600190039060005260206000200160009091909190916101000a81548173ffffffffffffffffffffffffffffffffffffffff021916908373ffffffffffffffffffffffffffffffffffffffff160217905550600a8181548110610d1157610d10613ede565b5b9060005260206000200160009054906101000a900473ffffffffffffffffffffffffffffffffffffffff16838381518110610d4f57610d4e613ede565b5b602002602001019073ffffffffffffffffffffffffffffffffffffffff16908173ffffffffffffffffffffffffffffffffffffffff1681525050600f600a8281548110610d9f57610d9e613ede565b5b9060005260206000200160009054906101000a900473ffffffffffffffffffffffffffffffffffffffff169080600181540180825580915050600190039060005260206000200160009091909190916101000a81548173ffffffffffffffffffffffffffffffffffffffff021916908373ffffffffffffffffffffffffffffffffffffffff1602179055506001600e6000600a8481548110610e4457610e43613ede565b5b9060005260206000200160009054906101000a900473ffffffffffffffffffffffffffffffffffffffff1673ffffffffffffffffffffffffffffffffffffffff1673ffffffffffffffffffffffffffffffffffffffff16815260200190815260200160002060006101000a81548160ff021916908315150217905550610f07600a8281548110610ed757610ed6613ede565b5b9060005260206000200160009054906101000a900473ffffffffffffffffffffffffffffffffffffffff166126be565b505b8080610f1490613f3c565b915050610b51565b50610f2561295b565b600754600654610f359190614184565b6006819055507f829b513919de678eb1d3f14b0866285c7874f394579418a708bfd4a0a78651eb81604051610f6a9190613bf1565b60405180910390a1505050505050565b6000610f8582612a12565b610fc4576040517f08c379a0000000000000000000000000000000000000000000000000000000008152600401610fbb9061424c565b60405180910390fd5b6004600083815260200190815260200160002060009054906101000a900473ffffffffffffffffffffffffffffffffffffffff169050919050565b600061100a82611ba7565b90508073ffffffffffffffffffffffffffffffffffffffff168373ffffffffffffffffffffffffffffffffffffffff16141561107b576040517f08c379a0000000000000000000000000000000000000000000000000000000008152600401611072906142de565b60405180910390fd5b8073ffffffffffffffffffffffffffffffffffffffff1661109a6126b6565b73ffffffffffffffffffffffffffffffffffffffff1614806110c957506110c8816110c36126b6565b612432565b5b611108576040517f08c379a00000000000000000000000000000000000000000000000000000000081526004016110ff90614370565b60405180910390fd5b6111128383612a32565b505050565b6000806000600654925060075491506008549050909192565b600080600654148061114457506000600754145b8061115157506000600854145b806111695750600960009054906101000a900460ff16155b1561117757600090506111d8565b60004290506006548111156111d2576007546006546111969190614184565b8111156111a75760049150506111d8565b6008546006546111b79190614184565b8111156111c85760029150506111d8565b60019150506111d8565b60039150505b90565b6111e3611fe2565b73ffffffffffffffffffffffffffffffffffffffff166112016126b6565b73ffffffffffffffffffffffffffffffffffffffff161415611258576040517f08c379a000000000000000000000000000000000000000000000000000000000815260040161124f906143dc565b60405180910390fd5b6000600b60006112666126b6565b73ffffffffffffffffffffffffffffffffffffffff1673ffffffffffffffffffffffffffffffffffffffff16815260200190815260200160002054146112e1576040517f08c379a00000000000000000000000000000000000000000000000000000000081526004016112d890614448565b60405180910390fd5b600e60006112ed6126b6565b73ffffffffffffffffffffffffffffffffffffffff1673ffffffffffffffffffffffffffffffffffffffff16815260200190815260200160002060009054906101000a900460ff1615611375576040517f08c379a000000000000000000000000000000000000000000000000000000000815260040161136c906144b4565b60405180910390fd5b600061137f611130565b90506001600481111561139557611394613926565b5b8160048111156113a8576113a7613926565b5b14806113d85750600060048111156113c3576113c2613926565b5b8160048111156113d6576113d5613926565b5b145b611417576040517f08c379a000000000000000000000000000000000000000000000000000000000815260040161140e90614546565b60405180910390fd5b600a6114216126b6565b9080600181540180825580915050600190039060005260206000200160009091909190916101000a81548173ffffffffffffffffffffffffffffffffffffffff021916908373ffffffffffffffffffffffffffffffffffffffff160217905550600a80549050600b60006114936126b6565b73ffffffffffffffffffffffffffffffffffffffff1673ffffffffffffffffffffffffffffffffffffffff1681526020019081526020016000208190555050565b6114e56114df6126b6565b82612aeb565b611524576040517f08c379a000000000000000000000000000000000000000000000000000000000815260040161151b906145d8565b60405180910390fd5b61152f838383612bc9565b505050565b6060600073ffffffffffffffffffffffffffffffffffffffff168273ffffffffffffffffffffffffffffffffffffffff1614156115a6576040517f08c379a000000000000000000000000000000000000000000000000000000000815260040161159d9061466a565b60405180910390fd5b6000600c8054905067ffffffffffffffff8111156115c7576115c6613c84565b5b6040519080825280602002602001820160405280156115f55781602001602082028036833780820191505090505b5090506000805b600c805490508110156116c357611630600c82815481106116205761161f613ede565b5b9060005260206000200154611ba7565b73ffffffffffffffffffffffffffffffffffffffff168573ffffffffffffffffffffffffffffffffffffffff1614156116b057600c818154811061167757611676613ede565b5b906000526020600020015483838151811061169557611694613ede565b5b60200260200101818152505081806116ac90613f3c565b9250505b80806116bb90613f3c565b9150506115fc565b5060008167ffffffffffffffff8111156116e0576116df613c84565b5b60405190808252806020026020018201604052801561170e5781602001602082028036833780820191505090505b50905060005b828110156117695783818151811061172f5761172e613ede565b5b602002602001015182828151811061174a57611749613ede565b5b602002602001018181525050808061176190613f3c565b915050611714565b50809350505050919050565b600080611780611130565b90506001600481111561179657611795613926565b5b8160048111156117a9576117a8613926565b5b14806117d95750600260048111156117c4576117c3613926565b5b8160048111156117d7576117d6613926565b5b145b8061180757506004808111156117f2576117f1613926565b5b81600481111561180557611804613926565b5b145b156118245760075460065461181c9190614184565b91505061182b565b6006549150505b90565b6118366126b6565b73ffffffffffffffffffffffffffffffffffffffff16611854611fe2565b73ffffffffffffffffffffffffffffffffffffffff16146118aa576040517f08c379a00000000000000000000000000000000000000000000000000000000081526004016118a190613ebe565b60405180910390fd5b6118b48282612ef6565b600c819080600181540180825580915050600190039060005260206000200160009091909190915055600c80549050600d6000838152602001908152602001600020819055505050565b6119066126b6565b73ffffffffffffffffffffffffffffffffffffffff16611924611fe2565b73ffffffffffffffffffffffffffffffffffffffff161461197a576040517f08c379a000000000000000000000000000000000000000000000000000000000815260040161197190613ebe565b60405180910390fd5b60075481106119be576040517f08c379a00000000000000000000000000000000000000000000000000000000081526004016119b5906146fc565b60405180910390fd5b8060088190555050565b6119e38383836040518060200160405280600081525061211b565b505050565b6119f06126b6565b73ffffffffffffffffffffffffffffffffffffffff16611a0e611fe2565b73ffffffffffffffffffffffffffffffffffffffff1614611a64576040517f08c379a0000000000000000000000000000000000000000000000000000000008152600401611a5b90613ebe565b60405180910390fd5b611a6d81612f14565b60006001600d600084815260200190815260200160002054611a8f919061471c565b9050600c6001600c80549050611aa5919061471c565b81548110611ab657611ab5613ede565b5b9060005260206000200154600c8281548110611ad557611ad4613ede565b5b9060005260206000200181905550600181611af09190614184565b600d6000600c8481548110611b0857611b07613ede565b5b9060005260206000200154815260200190815260200160002081905550600d600083815260200190815260200160002060009055600c805480611b4e57611b4d614750565b5b600190038181906000526020600020016000905590555050565b600f8181548110611b7857600080fd5b906000526020600020016000915054906101000a900473ffffffffffffffffffffffffffffffffffffffff1681565b600080600090506000600360008581526020019081526020016000208054905090506000811115611d0b576000611bdc611130565b905060036004811115611bf257611bf1613926565b5b816004811115611c0557611c04613926565b5b1415611c6e5760036000868152602001908152602001600020600283611c2b919061471c565b81548110611c3c57611c3b613ede565b5b9060005260206000200160009054906101000a900473ffffffffffffffffffffffffffffffffffffffff169250611d09565b600480811115611c8157611c80613926565b5b816004811115611c9457611c93613926565b5b1415611ca957611ca2611fe2565b9250611d08565b60036000868152602001908152602001600020600183611cc9919061471c565b81548110611cda57611cd9613ede565b5b9060005260206000200160009054906101000a900473ffffffffffffffffffffffffffffffffffffffff1692505b5b505b600073ffffffffffffffffffffffffffffffffffffffff168273ffffffffffffffffffffffffffffffffffffffff161415611d7b576040517f08c379a0000000000000000000000000000000000000000000000000000000008152600401611d72906147f1565b60405180910390fd5b8192505050919050565b60008073ffffffffffffffffffffffffffffffffffffffff168273ffffffffffffffffffffffffffffffffffffffff161415611df6576040517f08c379a0000000000000000000000000000000000000000000000000000000008152600401611ded90614883565b60405180910390fd5b6000805b600c80549050811015611e8357611e2e600c8281548110611e1e57611e1d613ede565b5b9060005260206000200154611ba7565b73ffffffffffffffffffffffffffffffffffffffff168473ffffffffffffffffffffffffffffffffffffffff161415611e70578180611e6c90613f3c565b9250505b8080611e7b90613f3c565b915050611dfa565b5080915050919050565b611e956126b6565b73ffffffffffffffffffffffffffffffffffffffff16611eb3611fe2565b73ffffffffffffffffffffffffffffffffffffffff1614611f09576040517f08c379a0000000000000000000000000000000000000000000000000000000008152600401611f0090613ebe565b60405180910390fd5b611f136000612fc3565b565b600a8181548110611f2557600080fd5b906000526020600020016000915054906101000a900473ffffffffffffffffffffffffffffffffffffffff1681565b6060600f805480602002602001604051908101604052809291908181526020018280548015611fd857602002820191906000526020600020905b8160009054906101000a900473ffffffffffffffffffffffffffffffffffffffff1673ffffffffffffffffffffffffffffffffffffffff1681526020019060010190808311611f8e575b5050505050905090565b60008060009054906101000a900473ffffffffffffffffffffffffffffffffffffffff16905090565b61201b6120166126b6565b6126be565b565b60606002805461202c90613fb4565b80601f016020809104026020016040519081016040528092919081815260200182805461205890613fb4565b80156120a55780601f1061207a576101008083540402835291602001916120a5565b820191906000526020600020905b81548152906001019060200180831161208857829003601f168201915b5050505050905090565b6000600e60008373ffffffffffffffffffffffffffffffffffffffff1673ffffffffffffffffffffffffffffffffffffffff16815260200190815260200160002060009054906101000a900460ff169050919050565b6121176121106126b6565b8383613087565b5050565b61212c6121266126b6565b83612aeb565b61216b576040517f08c379a0000000000000000000000000000000000000000000000000000000008152600401612162906145d8565b60405180910390fd5b612177848484846131f4565b50505050565b6121856126b6565b73ffffffffffffffffffffffffffffffffffffffff166121a3611fe2565b73ffffffffffffffffffffffffffffffffffffffff16146121f9576040517f08c379a00000000000000000000000000000000000000000000000000000000081526004016121f090613ebe565b60405180910390fd5b8060078190555050565b606061220e82612a12565b61224d576040517f08c379a000000000000000000000000000000000000000000000000000000000815260040161224490614915565b60405180910390fd5b6000612257613205565b9050600081511161227757604051806020016040528060008152506122a2565b806122818461321c565b604051602001612292929190614966565b6040516020818303038152906040525b915050919050565b6122b26126b6565b73ffffffffffffffffffffffffffffffffffffffff166122d0611fe2565b73ffffffffffffffffffffffffffffffffffffffff1614612326576040517f08c379a000000000000000000000000000000000000000000000000000000000815260040161231d90613ebe565b60405180910390fd5b8060068190555050565b6060600c80548060200260200160405190810160405280929190818152602001828054801561237e57602002820191906000526020600020905b81548152602001906001019080831161236a575b5050505050905090565b600c818154811061239857600080fd5b906000526020600020016000915090505481565b6123b46126b6565b73ffffffffffffffffffffffffffffffffffffffff166123d2611fe2565b73ffffffffffffffffffffffffffffffffffffffff1614612428576040517f08c379a000000000000000000000000000000000000000000000000000000000815260040161241f90613ebe565b60405180910390fd5b61243061295b565b565b6000600560008473ffffffffffffffffffffffffffffffffffffffff1673ffffffffffffffffffffffffffffffffffffffff16815260200190815260200160002060008373ffffffffffffffffffffffffffffffffffffffff1673ffffffffffffffffffffffffffffffffffffffff16815260200190815260200160002060009054906101000a900460ff16905092915050565b6124ce6126b6565b73ffffffffffffffffffffffffffffffffffffffff166124ec611fe2565b73ffffffffffffffffffffffffffffffffffffffff1614612542576040517f08c379a000000000000000000000000000000000000000000000000000000000815260040161253990613ebe565b60405180910390fd5b600073ffffffffffffffffffffffffffffffffffffffff168173ffffffffffffffffffffffffffffffffffffffff1614156125b2576040517f08c379a00000000000000000000000000000000000000000000000000000000081526004016125a9906149fc565b60405180910390fd5b6125bb81612fc3565b50565b6060600a80548060200260200160405190810160405280929190818152602001828054801561264257602002820191906000526020600020905b8160009054906101000a900473ffffffffffffffffffffffffffffffffffffffff1673ffffffffffffffffffffffffffffffffffffffff16815260200190600101908083116125f8575b5050505050905090565b60007f01ffc9a7000000000000000000000000000000000000000000000000000000007bffffffffffffffffffffffffffffffffffffffffffffffffffffffff1916827bffffffffffffffffffffffffffffffffffffffffffffffffffffffff1916149050919050565b600033905090565b6000600b60008373ffffffffffffffffffffffffffffffffffffffff1673ffffffffffffffffffffffffffffffffffffffff168152602001908152602001600020541415612741576040517f08c379a000000000000000000000000000000000000000000000000000000000815260040161273890614a8e565b60405180910390fd5b60006001600b60008473ffffffffffffffffffffffffffffffffffffffff1673ffffffffffffffffffffffffffffffffffffffff1681526020019081526020016000205461278f919061471c565b9050600a6001600a805490506127a5919061471c565b815481106127b6576127b5613ede565b5b9060005260206000200160009054906101000a900473ffffffffffffffffffffffffffffffffffffffff16600a82815481106127f5576127f4613ede565b5b9060005260206000200160006101000a81548173ffffffffffffffffffffffffffffffffffffffff021916908373ffffffffffffffffffffffffffffffffffffffff16021790555060018161284a9190614184565b600b6000600a848154811061286257612861613ede565b5b9060005260206000200160009054906101000a900473ffffffffffffffffffffffffffffffffffffffff1673ffffffffffffffffffffffffffffffffffffffff1673ffffffffffffffffffffffffffffffffffffffff168152602001908152602001600020819055506000600b60008473ffffffffffffffffffffffffffffffffffffffff1673ffffffffffffffffffffffffffffffffffffffff16815260200190815260200160002081905550600a80548061292257612921614750565b5b6001900381819060005260206000200160006101000a81549073ffffffffffffffffffffffffffffffffffffffff021916905590555050565b60005b600a80549050811015612a01576000600b6000600a848154811061298557612984613ede565b5b9060005260206000200160009054906101000a900473ffffffffffffffffffffffffffffffffffffffff1673ffffffffffffffffffffffffffffffffffffffff1673ffffffffffffffffffffffffffffffffffffffff1681526020019081526020016000208190555080806129f990613f3c565b91505061295e565b50600a6000612a10919061353b565b565b600080600d60008481526020019081526020016000205414159050919050565b816004600083815260200190815260200160002060006101000a81548173ffffffffffffffffffffffffffffffffffffffff021916908373ffffffffffffffffffffffffffffffffffffffff160217905550808273ffffffffffffffffffffffffffffffffffffffff16612aa583611ba7565b73ffffffffffffffffffffffffffffffffffffffff167f8c5be1e5ebec7d5bd14f71427d1e84f3dd0314c0f7b2291e5b200ac8c7c3b92560405160405180910390a45050565b6000612af682612a12565b612b35576040517f08c379a0000000000000000000000000000000000000000000000000000000008152600401612b2c90614b20565b60405180910390fd5b6000612b4083611ba7565b90508073ffffffffffffffffffffffffffffffffffffffff168473ffffffffffffffffffffffffffffffffffffffff161480612baf57508373ffffffffffffffffffffffffffffffffffffffff16612b9784610f7a565b73ffffffffffffffffffffffffffffffffffffffff16145b80612bc05750612bbf8185612432565b5b91505092915050565b8273ffffffffffffffffffffffffffffffffffffffff16612be982611ba7565b73ffffffffffffffffffffffffffffffffffffffff1614612c3f576040517f08c379a0000000000000000000000000000000000000000000000000000000008152600401612c3690614bb2565b60405180910390fd5b612c47611fe2565b73ffffffffffffffffffffffffffffffffffffffff168373ffffffffffffffffffffffffffffffffffffffff161415612cb5576040517f08c379a0000000000000000000000000000000000000000000000000000000008152600401612cac90614c44565b60405180910390fd5b600073ffffffffffffffffffffffffffffffffffffffff168273ffffffffffffffffffffffffffffffffffffffff161415612d25576040517f08c379a0000000000000000000000000000000000000000000000000000000008152600401612d1c90614cd6565b60405180910390fd5b612d3083838361337d565b612d3b600082612a32565b6000612d45611130565b905060006003600084815260200190815260200160002080549050905060036004811115612d7657612d75613926565b5b826004811115612d8957612d88613926565b5b1415612e0e578360036000858152602001908152602001600020600283612db0919061471c565b81548110612dc157612dc0613ede565b5b9060005260206000200160006101000a81548173ffffffffffffffffffffffffffffffffffffffff021916908373ffffffffffffffffffffffffffffffffffffffff160217905550612e89565b8360036000858152602001908152602001600020600183612e2f919061471c565b81548110612e4057612e3f613ede565b5b9060005260206000200160006101000a81548173ffffffffffffffffffffffffffffffffffffffff021916908373ffffffffffffffffffffffffffffffffffffffff1602179055505b828473ffffffffffffffffffffffffffffffffffffffff168673ffffffffffffffffffffffffffffffffffffffff167fddf252ad1be2c89b69c2b068fc378daa952ba7f163c4a11628f55a4df523b3ef60405160405180910390a4612eef858585613382565b5050505050565b612f10828260405180602001604052806000815250613387565b5050565b6000612f1f82611ba7565b9050612f2d8160008461337d565b612f38600083612a32565b600360008381526020019081526020016000206000612f57919061353b565b81600073ffffffffffffffffffffffffffffffffffffffff168273ffffffffffffffffffffffffffffffffffffffff167fddf252ad1be2c89b69c2b068fc378daa952ba7f163c4a11628f55a4df523b3ef60405160405180910390a4612fbf81600084613382565b5050565b60008060009054906101000a900473ffffffffffffffffffffffffffffffffffffffff169050816000806101000a81548173ffffffffffffffffffffffffffffffffffffffff021916908373ffffffffffffffffffffffffffffffffffffffff1602179055508173ffffffffffffffffffffffffffffffffffffffff168173ffffffffffffffffffffffffffffffffffffffff167f8be0079c531659141344cd1fd0a4f28419497f9722a3daafe3b4186f6b6457e060405160405180910390a35050565b8173ffffffffffffffffffffffffffffffffffffffff168373ffffffffffffffffffffffffffffffffffffffff1614156130f6576040517f08c379a00000000000000000000000000000000000000000000000000000000081526004016130ed90614d42565b60405180910390fd5b80600560008573ffffffffffffffffffffffffffffffffffffffff1673ffffffffffffffffffffffffffffffffffffffff16815260200190815260200160002060008473ffffffffffffffffffffffffffffffffffffffff1673ffffffffffffffffffffffffffffffffffffffff16815260200190815260200160002060006101000a81548160ff0219169083151502179055508173ffffffffffffffffffffffffffffffffffffffff168373ffffffffffffffffffffffffffffffffffffffff167f17307eab39ab6107e8899845ad3d59bd9653f200f220920489ca2b5937696c31836040516131e7919061362d565b60405180910390a3505050565b6131ff848484612bc9565b50505050565b606060405180602001604052806000815250905090565b60606000821415613264576040518060400160405280600181526020017f30000000000000000000000000000000000000000000000000000000000000008152509050613378565b600082905060005b6000821461329657808061327f90613f3c565b915050600a8261328f9190614153565b915061326c565b60008167ffffffffffffffff8111156132b2576132b1613c84565b5b6040519080825280601f01601f1916602001820160405280156132e45781602001600182028036833780820191505090505b5090505b60008514613371576001826132fd919061471c565b9150600a8561330c9190614122565b60306133189190614184565b60f81b81838151811061332e5761332d613ede565b5b60200101907effffffffffffffffffffffffffffffffffffffffffffffffffffffffffffff1916908160001a905350600a8561336a9190614153565b94506132e8565b8093505050505b919050565b505050565b505050565b6133918383613396565b505050565b600073ffffffffffffffffffffffffffffffffffffffff168273ffffffffffffffffffffffffffffffffffffffff161415613406576040517f08c379a00000000000000000000000000000000000000000000000000000000081526004016133fd90614dd4565b60405180910390fd5b61340f81612a12565b1561344f576040517f08c379a000000000000000000000000000000000000000000000000000000000815260040161344690614e40565b60405180910390fd5b61345b6000838361337d565b60036000828152602001908152602001600020829080600181540180825580915050600190039060005260206000200160009091909190916101000a81548173ffffffffffffffffffffffffffffffffffffffff021916908373ffffffffffffffffffffffffffffffffffffffff160217905550808273ffffffffffffffffffffffffffffffffffffffff16600073ffffffffffffffffffffffffffffffffffffffff167fddf252ad1be2c89b69c2b068fc378daa952ba7f163c4a11628f55a4df523b3ef60405160405180910390a461353760008383613382565b5050565b5080546000825590600052602060002090810190613559919061355c565b50565b5b8082111561357557600081600090555060010161355d565b5090565b6000604051905090565b600080fd5b600080fd5b60007fffffffff0000000000000000000000000000000000000000000000000000000082169050919050565b6135c28161358d565b81146135cd57600080fd5b50565b6000813590506135df816135b9565b92915050565b6000602082840312156135fb576135fa613583565b5b6000613609848285016135d0565b91505092915050565b60008115159050919050565b61362781613612565b82525050565b6000602082019050613642600083018461361e565b92915050565b600081519050919050565b600082825260208201905092915050565b60005b83811015613682578082015181840152602081019050613667565b83811115613691576000848401525b50505050565b6000601f19601f8301169050919050565b60006136b382613648565b6136bd8185613653565b93506136cd818560208601613664565b6136d681613697565b840191505092915050565b600060208201905081810360008301526136fb81846136a8565b905092915050565b600080fd5b600080fd5b600080fd5b60008083601f84011261372857613727613703565b5b8235905067ffffffffffffffff81111561374557613744613708565b5b6020830191508360018202830111156137615761376061370d565b5b9250929050565b6000806020838503121561377f5761377e613583565b5b600083013567ffffffffffffffff81111561379d5761379c613588565b5b6137a985828601613712565b92509250509250929050565b6000819050919050565b6137c8816137b5565b81146137d357600080fd5b50565b6000813590506137e5816137bf565b92915050565b60006020828403121561380157613800613583565b5b600061380f848285016137d6565b91505092915050565b600073ffffffffffffffffffffffffffffffffffffffff82169050919050565b600061384382613818565b9050919050565b61385381613838565b82525050565b600060208201905061386e600083018461384a565b92915050565b61387d81613838565b811461388857600080fd5b50565b60008135905061389a81613874565b92915050565b600080604083850312156138b7576138b6613583565b5b60006138c58582860161388b565b92505060206138d6858286016137d6565b9150509250929050565b6138e9816137b5565b82525050565b600060608201905061390460008301866138e0565b61391160208301856138e0565b61391e60408301846138e0565b949350505050565b7f4e487b7100000000000000000000000000000000000000000000000000000000600052602160045260246000fd5b6005811061396657613965613926565b5b50565b600081905061397782613955565b919050565b600061398782613969565b9050919050565b6139978161397c565b82525050565b60006020820190506139b2600083018461398e565b92915050565b6000806000606084860312156139d1576139d0613583565b5b60006139df8682870161388b565b93505060206139f08682870161388b565b9250506040613a01868287016137d6565b9150509250925092565b600060208284031215613a2157613a20613583565b5b6000613a2f8482850161388b565b91505092915050565b600081519050919050565b600082825260208201905092915050565b6000819050602082019050919050565b613a6d816137b5565b82525050565b6000613a7f8383613a64565b60208301905092915050565b6000602082019050919050565b6000613aa382613a38565b613aad8185613a43565b9350613ab883613a54565b8060005b83811015613ae9578151613ad08882613a73565b9750613adb83613a8b565b925050600181019050613abc565b5085935050505092915050565b60006020820190508181036000830152613b108184613a98565b905092915050565b6000602082019050613b2d60008301846138e0565b92915050565b600081519050919050565b600082825260208201905092915050565b6000819050602082019050919050565b613b6881613838565b82525050565b6000613b7a8383613b5f565b60208301905092915050565b6000602082019050919050565b6000613b9e82613b33565b613ba88185613b3e565b9350613bb383613b4f565b8060005b83811015613be4578151613bcb8882613b6e565b9750613bd683613b86565b925050600181019050613bb7565b5085935050505092915050565b60006020820190508181036000830152613c0b8184613b93565b905092915050565b613c1c81613612565b8114613c2757600080fd5b50565b600081359050613c3981613c13565b92915050565b60008060408385031215613c5657613c55613583565b5b6000613c648582860161388b565b9250506020613c7585828601613c2a565b9150509250929050565b600080fd5b7f4e487b7100000000000000000000000000000000000000000000000000000000600052604160045260246000fd5b613cbc82613697565b810181811067ffffffffffffffff82111715613cdb57613cda613c84565b5b80604052505050565b6000613cee613579565b9050613cfa8282613cb3565b919050565b600067ffffffffffffffff821115613d1a57613d19613c84565b5b613d2382613697565b9050602081019050919050565b82818337600083830152505050565b6000613d52613d4d84613cff565b613ce4565b905082815260208101848484011115613d6e57613d6d613c7f565b5b613d79848285613d30565b509392505050565b600082601f830112613d9657613d95613703565b5b8135613da6848260208601613d3f565b91505092915050565b60008060008060808587031215613dc957613dc8613583565b5b6000613dd78782880161388b565b9450506020613de88782880161388b565b9350506040613df9878288016137d6565b925050606085013567ffffffffffffffff811115613e1a57613e19613588565b5b613e2687828801613d81565b91505092959194509250565b60008060408385031215613e4957613e48613583565b5b6000613e578582860161388b565b9250506020613e688582860161388b565b9150509250929050565b7f4f776e61626c653a2063616c6c6572206973206e6f7420746865206f776e6572600082015250565b6000613ea8602083613653565b9150613eb382613e72565b602082019050919050565b60006020820190508181036000830152613ed781613e9b565b9050919050565b7f4e487b7100000000000000000000000000000000000000000000000000000000600052603260045260246000fd5b7f4e487b7100000000000000000000000000000000000000000000000000000000600052601160045260246000fd5b6000613f47826137b5565b91507fffffffffffffffffffffffffffffffffffffffffffffffffffffffffffffffff821415613f7a57613f79613f0d565b5b600182019050919050565b7f4e487b7100000000000000000000000000000000000000000000000000000000600052602260045260246000fd5b60006002820490506001821680613fcc57607f821691505b60208210811415613fe057613fdf613f85565b5b50919050565b7f44796e616d69634e46543a2043616e6e6f74207069636b2077696e6e6572206e60008201527f6f77000000000000000000000000000000000000000000000000000000000000602082015250565b6000614042602283613653565b915061404d82613fe6565b604082019050919050565b6000602082019050818103600083015261407181614035565b9050919050565b600081905092915050565b600061408f8385614078565b935061409c838584613d30565b82840190509392505050565b6000819050919050565b6140c36140be826137b5565b6140a8565b82525050565b60006140d6828587614083565b91506140e282846140b2565b602082019150819050949350505050565b7f4e487b7100000000000000000000000000000000000000000000000000000000600052601260045260246000fd5b600061412d826137b5565b9150614138836137b5565b925082614148576141476140f3565b5b828206905092915050565b600061415e826137b5565b9150614169836137b5565b925082614179576141786140f3565b5b828204905092915050565b600061418f826137b5565b915061419a836137b5565b9250827fffffffffffffffffffffffffffffffffffffffffffffffffffffffffffffffff038211156141cf576141ce613f0d565b5b828201905092915050565b7f44796e616d69634e46543a20617070726f76656420717565727920666f72206e60008201527f6f6e6578697374656e7420746f6b656e00000000000000000000000000000000602082015250565b6000614236603083613653565b9150614241826141da565b604082019050919050565b6000602082019050818103600083015261426581614229565b9050919050565b7f44796e616d69634e46543a20617070726f76616c20746f2063757272656e742060008201527f6f776e6572000000000000000000000000000000000000000000000000000000602082015250565b60006142c8602583613653565b91506142d38261426c565b604082019050919050565b600060208201905081810360008301526142f7816142bb565b9050919050565b7f44796e616d69634e46543a20617070726f76652063616c6c6572206973206e6f60008201527f74206f776e6572206e6f7220617070726f76656420666f7220616c6c00000000602082015250565b600061435a603c83613653565b9150614365826142fe565b604082019050919050565b600060208201905081810360008301526143898161434d565b9050919050565b7f44796e616d69634e46543a206f776e65722063616e6e6f742062696400000000600082015250565b60006143c6601c83613653565b91506143d182614390565b602082019050919050565b600060208201905081810360008301526143f5816143b9565b9050919050565b7f44796e616d69634e46543a2062696464656420616c7265616479000000000000600082015250565b6000614432601a83613653565b915061443d826143fc565b602082019050919050565b6000602082019050818103600083015261446181614425565b9050919050565b7f44796e616d69634e46543a2077696e6e65722063616e6e6f7420626964000000600082015250565b600061449e601d83613653565b91506144a982614468565b602082019050919050565b600060208201905081810360008301526144cd81614491565b9050919050565b7f44796e616d69634e46543a2063616e6e6f742062696420696e2063757272656e60008201527f7420737461746500000000000000000000000000000000000000000000000000602082015250565b6000614530602783613653565b915061453b826144d4565b604082019050919050565b6000602082019050818103600083015261455f81614523565b9050919050565b7f44796e616d69634e46543a207472616e736665722063616c6c6572206973206e60008201527f6f74206f776e6572206e6f7220617070726f7665640000000000000000000000602082015250565b60006145c2603583613653565b91506145cd82614566565b604082019050919050565b600060208201905081810360008301526145f1816145b5565b9050919050565b7f44796e616d69634e46543a20717565727920666f7220746865207a65726f206160008201527f6464726573730000000000000000000000000000000000000000000000000000602082015250565b6000614654602683613653565b915061465f826145f8565b604082019050919050565b6000602082019050818103600083015261468381614647565b9050919050565b7f44796e616d69634e46543a2062696464696e6754696d652073686f756c64206260008201527f65206c6f776572207468616e20726f756e64496e74657276616c000000000000602082015250565b60006146e6603a83613653565b91506146f18261468a565b604082019050919050565b60006020820190508181036000830152614715816146d9565b9050919050565b6000614727826137b5565b9150614732836137b5565b92508282101561474557614744613f0d565b5b828203905092915050565b7f4e487b7100000000000000000000000000000000000000000000000000000000600052603160045260246000fd5b7f44796e616d69634e46543a206f776e657220717565727920666f72206e6f6e6560008201527f78697374656e7420746f6b656e00000000000000000000000000000000000000602082015250565b60006147db602d83613653565b91506147e68261477f565b604082019050919050565b6000602082019050818103600083015261480a816147ce565b9050919050565b7f44796e616d69634e46543a2062616c616e636520717565727920666f7220746860008201527f65207a65726f2061646472657373000000000000000000000000000000000000602082015250565b600061486d602e83613653565b915061487882614811565b604082019050919050565b6000602082019050818103600083015261489c81614860565b9050919050565b7f44796e616d69634e46543a2055524920717565727920666f72206e6f6e65786960008201527f7374656e7420746f6b656e000000000000000000000000000000000000000000602082015250565b60006148ff602b83613653565b915061490a826148a3565b604082019050919050565b6000602082019050818103600083015261492e816148f2565b9050919050565b600061494082613648565b61494a8185614078565b935061495a818560208601613664565b80840191505092915050565b60006149728285614935565b915061497e8284614935565b91508190509392505050565b7f4f776e61626c653a206e6577206f776e657220697320746865207a65726f206160008201527f6464726573730000000000000000000000000000000000000000000000000000602082015250565b60006149e6602683613653565b91506149f18261498a565b604082019050919050565b60006020820190508181036000830152614a15816149d9565b9050919050565b7f44796e616d69634e46543a2074617267657420646f65736e6f7420626964646560008201527f6400000000000000000000000000000000000000000000000000000000000000602082015250565b6000614a78602183613653565b9150614a8382614a1c565b604082019050919050565b60006020820190508181036000830152614aa781614a6b565b9050919050565b7f44796e616d69634e46543a206f70657261746f7220717565727920666f72206e60008201527f6f6e6578697374656e7420746f6b656e00000000000000000000000000000000602082015250565b6000614b0a603083613653565b9150614b1582614aae565b604082019050919050565b60006020820190508181036000830152614b3981614afd565b9050919050565b7f44796e616d69634e46543a207472616e736665722066726f6d20696e636f727260008201527f656374206f776e65720000000000000000000000000000000000000000000000602082015250565b6000614b9c602983613653565b9150614ba782614b40565b604082019050919050565b60006020820190508181036000830152614bcb81614b8f565b9050919050565b7f44796e616d69634e46543a20636f6e7472616374206f776e65722063616e6e6f60008201527f74207472616e7366657220746f6b656e00000000000000000000000000000000602082015250565b6000614c2e603083613653565b9150614c3982614bd2565b604082019050919050565b60006020820190508181036000830152614c5d81614c21565b9050919050565b7f44796e616d69634e46543a207472616e7366657220746f20746865207a65726f60008201527f2061646472657373000000000000000000000000000000000000000000000000602082015250565b6000614cc0602883613653565b9150614ccb82614c64565b604082019050919050565b60006020820190508181036000830152614cef81614cb3565b9050919050565b7f44796e616d69634e46543a20617070726f766520746f2063616c6c6572000000600082015250565b6000614d2c601d83613653565b9150614d3782614cf6565b602082019050919050565b60006020820190508181036000830152614d5b81614d1f565b9050919050565b7f44796e616d69634e46543a206d696e7420746f20746865207a65726f2061646460008201527f7265737300000000000000000000000000000000000000000000000000000000602082015250565b6000614dbe602483613653565b9150614dc982614d62565b604082019050919050565b60006020820190508181036000830152614ded81614db1565b9050919050565b7f44796e616d69634e46543a20746f6b656e20616c7265616479206d696e746564600082015250565b6000614e2a602083613653565b9150614e3582614df4565b602082019050919050565b60006020820190508181036000830152614e5981614e1d565b905091905056fea26469706673582212202bd8c08dfea0d584d1b0bf912a6ab90117a8ed58902cfa6b494e2c134d1f799264736f6c634300080b0033",
  "linkReferences": {},
  "deployedLinkReferences": {}
}